{
  "_format": "hh-sol-artifact-1",
  "contractName": "BirdGameTokenSwap",
  "sourceName": "contracts/BirdGameTokenSwap.sol",
  "abi": [
    {
      "anonymous": false,
      "inputs": [
        {
          "indexed": false,
          "internalType": "address",
          "name": "previousAdmin",
          "type": "address"
        },
        {
          "indexed": false,
          "internalType": "address",
          "name": "newAdmin",
          "type": "address"
        }
      ],
      "name": "AdminChanged",
      "type": "event"
    },
    {
      "anonymous": false,
      "inputs": [
        {
          "indexed": true,
          "internalType": "address",
          "name": "beacon",
          "type": "address"
        }
      ],
      "name": "BeaconUpgraded",
      "type": "event"
    },
    {
      "anonymous": false,
      "inputs": [
        {
          "indexed": false,
          "internalType": "string",
          "name": "internalTx",
          "type": "string"
        },
        {
          "indexed": false,
          "internalType": "address",
          "name": "user",
          "type": "address"
        },
        {
          "indexed": false,
          "internalType": "uint256",
          "name": "amount",
          "type": "uint256"
        },
        {
          "indexed": false,
          "internalType": "bytes",
          "name": "signature",
          "type": "bytes"
        }
      ],
      "name": "CancelEvent",
      "type": "event"
    },
    {
      "anonymous": false,
      "inputs": [
        {
          "indexed": false,
          "internalType": "string[]",
          "name": "internalTx",
          "type": "string[]"
        }
      ],
      "name": "CancelWithAuthorityEvent",
      "type": "event"
    },
    {
      "anonymous": false,
      "inputs": [
        {
          "indexed": false,
          "internalType": "uint8",
          "name": "version",
          "type": "uint8"
        }
      ],
      "name": "Initialized",
      "type": "event"
    },
    {
      "anonymous": false,
      "inputs": [
        {
          "indexed": true,
          "internalType": "address",
          "name": "previousOwner",
          "type": "address"
        },
        {
          "indexed": true,
          "internalType": "address",
          "name": "newOwner",
          "type": "address"
        }
      ],
      "name": "OwnershipTransferred",
      "type": "event"
    },
    {
      "anonymous": false,
      "inputs": [
        {
          "indexed": false,
          "internalType": "string",
          "name": "role",
          "type": "string"
        },
        {
          "indexed": false,
          "internalType": "address",
          "name": "user",
          "type": "address"
        },
        {
          "indexed": false,
          "internalType": "bool",
          "name": "status",
          "type": "bool"
        }
      ],
      "name": "RoleEvent",
      "type": "event"
    },
    {
      "anonymous": false,
      "inputs": [
        {
          "indexed": false,
          "internalType": "string",
          "name": "internalTx",
          "type": "string"
        },
        {
          "indexed": false,
          "internalType": "address",
          "name": "user",
          "type": "address"
        },
        {
          "indexed": false,
          "internalType": "uint256",
          "name": "amount",
          "type": "uint256"
        },
        {
          "indexed": false,
          "internalType": "uint256",
          "name": "BirdGame",
          "type": "uint256"
        },
        {
          "indexed": false,
          "internalType": "bytes",
          "name": "userSignature",
          "type": "bytes"
        }
      ],
      "name": "SwapEvent",
      "type": "event"
    },
    {
      "anonymous": false,
      "inputs": [
        {
          "indexed": true,
          "internalType": "address",
          "name": "implementation",
          "type": "address"
        }
      ],
      "name": "Upgraded",
      "type": "event"
    },
    {
      "anonymous": false,
      "inputs": [
        {
          "indexed": false,
          "internalType": "uint8[]",
          "name": "mtx",
          "type": "uint8[]"
        },
        {
          "indexed": false,
          "internalType": "uint8",
          "name": "IsJackpot",
          "type": "uint8"
        },
        {
          "indexed": false,
          "internalType": "uint256",
          "name": "TotalPrizeValue",
          "type": "uint256"
        }
      ],
      "name": "resultBirdGame",
      "type": "event"
    },
    {
      "inputs": [],
      "name": "_Jackpotbalance",
      "outputs": [
        {
          "internalType": "uint256",
          "name": "",
          "type": "uint256"
        }
      ],
      "stateMutability": "view",
      "type": "function"
    },
    {
      "inputs": [],
      "name": "_defaultJackpot",
      "outputs": [
        {
          "internalType": "uint256",
          "name": "",
          "type": "uint256"
        }
      ],
      "stateMutability": "view",
      "type": "function"
    },
    {
      "inputs": [
        {
          "internalType": "address",
          "name": "",
          "type": "address"
        }
      ],
      "name": "adminLists",
      "outputs": [
        {
          "internalType": "bool",
          "name": "",
          "type": "bool"
        }
      ],
      "stateMutability": "view",
      "type": "function"
    },
    {
      "inputs": [],
      "name": "blockTime",
      "outputs": [
        {
          "internalType": "uint256",
          "name": "",
          "type": "uint256"
        }
      ],
      "stateMutability": "view",
      "type": "function"
    },
    {
      "inputs": [
        {
          "internalType": "uint256",
          "name": "",
          "type": "uint256"
        }
      ],
      "name": "bonus",
      "outputs": [
        {
          "internalType": "uint8",
          "name": "",
          "type": "uint8"
        }
      ],
      "stateMutability": "view",
      "type": "function"
    },
    {
      "inputs": [
        {
          "internalType": "string[]",
          "name": "internalTxs_",
          "type": "string[]"
        }
      ],
      "name": "cancelTxWithAuthority",
      "outputs": [],
      "stateMutability": "nonpayable",
      "type": "function"
    },
    {
      "inputs": [
        {
          "internalType": "uint256",
          "name": "",
          "type": "uint256"
        }
      ],
      "name": "data",
      "outputs": [
        {
          "internalType": "uint8",
          "name": "",
          "type": "uint8"
        }
      ],
      "stateMutability": "view",
      "type": "function"
    },
    {
      "inputs": [
        {
          "internalType": "string",
          "name": "_internalTx",
          "type": "string"
        },
        {
          "internalType": "address",
          "name": "receiver_",
          "type": "address"
        },
        {
          "internalType": "uint256",
          "name": "amount_",
          "type": "uint256"
        }
      ],
      "name": "getMessageHash",
      "outputs": [
        {
          "internalType": "bytes32",
          "name": "",
          "type": "bytes32"
        }
      ],
      "stateMutability": "pure",
      "type": "function"
    },
    {
      "inputs": [
        {
          "internalType": "uint256",
          "name": "timestamp",
          "type": "uint256"
        },
        {
          "internalType": "uint256",
          "name": "amount",
          "type": "uint256"
        },
        {
          "internalType": "address",
          "name": "msgsender",
          "type": "address"
        },
        {
          "internalType": "string",
          "name": "internalTx",
          "type": "string"
        }
      ],
      "name": "getRandomHash",
      "outputs": [
        {
          "internalType": "uint8[]",
          "name": "",
          "type": "uint8[]"
        }
      ],
      "stateMutability": "view",
      "type": "function"
    },
    {
      "inputs": [
        {
          "internalType": "contract IERC20Upgradeable",
          "name": "token_",
          "type": "address"
        }
      ],
      "name": "initialize",
      "outputs": [],
      "stateMutability": "nonpayable",
      "type": "function"
    },
    {
      "inputs": [
        {
          "internalType": "string",
          "name": "",
          "type": "string"
        }
      ],
      "name": "invalidTx",
      "outputs": [
        {
          "internalType": "bool",
          "name": "",
          "type": "bool"
        }
      ],
      "stateMutability": "view",
      "type": "function"
    },
    {
      "inputs": [
        {
          "internalType": "address",
          "name": "",
          "type": "address"
        }
      ],
      "name": "lastGSwap",
      "outputs": [
        {
          "internalType": "uint256",
          "name": "",
          "type": "uint256"
        }
      ],
      "stateMutability": "view",
      "type": "function"
    },
    {
      "inputs": [],
      "name": "maxSwapAmount",
      "outputs": [
        {
          "internalType": "uint256",
          "name": "",
          "type": "uint256"
        }
      ],
      "stateMutability": "view",
      "type": "function"
    },
    {
      "inputs": [],
      "name": "owner",
      "outputs": [
        {
          "internalType": "address",
          "name": "",
          "type": "address"
        }
      ],
      "stateMutability": "view",
      "type": "function"
    },
    {
      "inputs": [
        {
          "internalType": "string",
          "name": "internalTx_",
          "type": "string"
        },
        {
          "internalType": "address",
          "name": "receiver_",
          "type": "address"
        },
        {
          "internalType": "uint256",
          "name": "bet",
          "type": "uint256"
        }
      ],
      "name": "playBirdGame",
      "outputs": [],
      "stateMutability": "nonpayable",
      "type": "function"
    },
    {
      "inputs": [],
      "name": "proxiableUUID",
      "outputs": [
        {
          "internalType": "bytes32",
          "name": "",
          "type": "bytes32"
        }
      ],
      "stateMutability": "view",
      "type": "function"
    },
    {
      "inputs": [],
      "name": "renounceOwnership",
      "outputs": [],
      "stateMutability": "nonpayable",
      "type": "function"
    },
    {
      "inputs": [
        {
          "internalType": "uint256",
          "name": "",
          "type": "uint256"
        },
        {
          "internalType": "uint256",
          "name": "",
          "type": "uint256"
        }
      ],
      "name": "result",
      "outputs": [
        {
          "internalType": "uint8",
          "name": "",
          "type": "uint8"
        }
      ],
      "stateMutability": "view",
      "type": "function"
    },
    {
      "inputs": [
        {
          "internalType": "address",
          "name": "user_",
          "type": "address"
        },
        {
          "internalType": "bool",
          "name": "status_",
          "type": "bool"
        }
      ],
      "name": "setAdmin",
      "outputs": [],
      "stateMutability": "nonpayable",
      "type": "function"
    },
    {
      "inputs": [
        {
          "internalType": "uint8[]",
          "name": "data_",
          "type": "uint8[]"
        }
      ],
      "name": "setBirdData",
      "outputs": [],
      "stateMutability": "nonpayable",
      "type": "function"
    },
    {
      "inputs": [
        {
          "internalType": "uint8[]",
          "name": "bonusData_",
          "type": "uint8[]"
        }
      ],
      "name": "setBonusData",
      "outputs": [],
      "stateMutability": "nonpayable",
      "type": "function"
    },
    {
      "inputs": [
        {
          "internalType": "contract IERC20Upgradeable",
          "name": "token_",
          "type": "address"
        }
      ],
      "name": "setExchangeToken",
      "outputs": [],
      "stateMutability": "nonpayable",
      "type": "function"
    },
    {
      "inputs": [
        {
          "internalType": "uint256",
          "name": "defaultJackpotbalance",
          "type": "uint256"
        }
      ],
      "name": "setJackpotmoney",
      "outputs": [],
      "stateMutability": "nonpayable",
      "type": "function"
    },
    {
      "inputs": [
        {
          "internalType": "uint256",
          "name": "maxSwapAmount_",
          "type": "uint256"
        }
      ],
      "name": "setMaxSwapAmount",
      "outputs": [],
      "stateMutability": "nonpayable",
      "type": "function"
    },
    {
      "inputs": [
        {
          "internalType": "uint256",
          "name": "swapDelay_",
          "type": "uint256"
        }
      ],
      "name": "setSwapDelay",
      "outputs": [],
      "stateMutability": "nonpayable",
      "type": "function"
    },
    {
      "inputs": [
        {
          "internalType": "address",
          "name": "user_",
          "type": "address"
        }
      ],
      "name": "setTokenDistributor",
      "outputs": [],
      "stateMutability": "nonpayable",
      "type": "function"
    },
    {
      "inputs": [
        {
          "internalType": "string",
          "name": "",
          "type": "string"
        }
      ],
      "name": "swapDatas",
      "outputs": [
        {
          "internalType": "address",
          "name": "user",
          "type": "address"
        },
        {
          "internalType": "uint256",
          "name": "amountIn",
          "type": "uint256"
        },
        {
          "internalType": "uint256",
          "name": "amountOut",
          "type": "uint256"
        },
        {
          "internalType": "uint256",
          "name": "swapTime",
          "type": "uint256"
        }
      ],
      "stateMutability": "view",
      "type": "function"
    },
    {
      "inputs": [],
      "name": "swapDelay",
      "outputs": [
        {
          "internalType": "uint256",
          "name": "",
          "type": "uint256"
        }
      ],
      "stateMutability": "view",
      "type": "function"
    },
    {
      "inputs": [],
      "name": "token",
      "outputs": [
        {
          "internalType": "contract IERC20Upgradeable",
          "name": "",
          "type": "address"
        }
      ],
      "stateMutability": "view",
      "type": "function"
    },
    {
      "inputs": [],
      "name": "tokenDistributor",
      "outputs": [
        {
          "internalType": "address",
          "name": "",
          "type": "address"
        }
      ],
      "stateMutability": "view",
      "type": "function"
    },
    {
      "inputs": [],
      "name": "tokenReceiver",
      "outputs": [
        {
          "internalType": "address",
          "name": "",
          "type": "address"
        }
      ],
      "stateMutability": "view",
      "type": "function"
    },
    {
      "inputs": [
        {
          "internalType": "address",
          "name": "newOwner",
          "type": "address"
        }
      ],
      "name": "transferOwnership",
      "outputs": [],
      "stateMutability": "nonpayable",
      "type": "function"
    },
    {
      "inputs": [
        {
          "internalType": "address",
          "name": "newImplementation",
          "type": "address"
        }
      ],
      "name": "upgradeTo",
      "outputs": [],
      "stateMutability": "nonpayable",
      "type": "function"
    },
    {
      "inputs": [
        {
          "internalType": "address",
          "name": "newImplementation",
          "type": "address"
        },
        {
          "internalType": "bytes",
          "name": "data",
          "type": "bytes"
        }
      ],
      "name": "upgradeToAndCall",
      "outputs": [],
      "stateMutability": "payable",
      "type": "function"
    }
  ],
  "bytecode": "0x60a06040523060805234801561001457600080fd5b5060805161329761004c6000396000818161071f015281816107680152818161096d015281816109ad0152610a4001526132976000f3fe6080604052600436106101f95760003560e01c80638f82abbb1161010d578063b446eb24116100a0578063da26742b1161006f578063da26742b1461062f578063f0ba84401461065f578063f2fde38b1461067f578063fc0c546a1461069f578063fcc7d147146106bf57600080fd5b8063b446eb24146105b3578063b93fc119146105ca578063c4d66de8146105f8578063cce987d41461061857600080fd5b80639a719864116100dc5780639a7198641461053c578063a03cc0b214610553578063a3e295bc14610573578063a5f7f99d1461059357600080fd5b80638f82abbb146104835780638fa2236d146104b0578063938ac182146104fc578063976a04d11461051c57600080fd5b80635163e2cc11610190578063715018a61161015f578063715018a6146103f0578063790a91f4146104055780637e407cc31461042557806389e56367146104455780638da5cb5b1461046557600080fd5b80635163e2cc1461031a57806352d1902d1461039b57806356887f76146103b057806363b136b3146103d057600080fd5b806338280e6b116101cc57806338280e6b146102b457806348b15166146102d45780634b0bddd2146102e75780634f1ef2861461030757600080fd5b80630e74b111146101fe57806318a6bc321461022857806324749b59146102605780633659cfe614610292575b600080fd5b34801561020a57600080fd5b506102156101005481565b6040519081526020015b60405180910390f35b34801561023457600080fd5b5060fc54610248906001600160a01b031681565b6040516001600160a01b03909116815260200161021f565b34801561026c57600080fd5b5061028061027b36600461297a565b6106df565b60405160ff909116815260200161021f565b34801561029e57600080fd5b506102b26102ad3660046129a8565b610714565b005b3480156102c057600080fd5b506102b26102cf3660046129a8565b6107fd565b3480156102e057600080fd5b5042610215565b3480156102f357600080fd5b506102b26103023660046129d3565b6108d0565b6102b2610315366004612aab565b610962565b34801561032657600080fd5b50610371610335366004612b2f565b805160208183018101805160ff8252928201919093012091528054600182015460028301546003909301546001600160a01b0390921692909184565b604080516001600160a01b039095168552602085019390935291830152606082015260800161021f565b3480156103a757600080fd5b50610215610a33565b3480156103bc57600080fd5b506102b26103cb366004612b88565b610ae6565b3480156103dc57600080fd5b506102b26103eb36600461297a565b610b43565b3480156103fc57600080fd5b506102b2610b92565b34801561041157600080fd5b506102b2610420366004612b88565b610ba6565b34801561043157600080fd5b50610215610440366004612c23565b610c03565b34801561045157600080fd5b506102b2610460366004612c7d565b610c3a565b34801561047157600080fd5b506097546001600160a01b0316610248565b34801561048f57600080fd5b506104a361049e366004612d2e565b610d1d565b60405161021f9190612dcf565b3480156104bc57600080fd5b506104ec6104cb366004612b2f565b80516020818301810180516101038252928201919093012091525460ff1681565b604051901515815260200161021f565b34801561050857600080fd5b50610280610517366004612de2565b610ec5565b34801561052857600080fd5b506102b2610537366004612c23565b610f15565b34801561054857600080fd5b506102156101075481565b34801561055f57600080fd5b506102b261056e3660046129a8565b611638565b34801561057f57600080fd5b5060fd54610248906001600160a01b031681565b34801561059f57600080fd5b506102b26105ae36600461297a565b611701565b3480156105bf57600080fd5b506102156101085481565b3480156105d657600080fd5b506102156105e53660046129a8565b6101026020526000908152604090205481565b34801561060457600080fd5b506102b26106133660046129a8565b611750565b34801561062457600080fd5b506102156101015481565b34801561063b57600080fd5b506104ec61064a3660046129a8565b60fe6020526000908152604090205460ff1681565b34801561066b57600080fd5b5061028061067a36600461297a565b611d23565b34801561068b57600080fd5b506102b261069a3660046129a8565b611d34565b3480156106ab57600080fd5b5060fb54610248906001600160a01b031681565b3480156106cb57600080fd5b506102b26106da36600461297a565b611daa565b61010581815481106106f057600080fd5b9060005260206000209060209182820401919006915054906101000a900460ff1681565b306001600160a01b037f00000000000000000000000000000000000000000000000000000000000000001614156107665760405162461bcd60e51b815260040161075d90612e04565b60405180910390fd5b7f00000000000000000000000000000000000000000000000000000000000000006001600160a01b03166107af60008051602061321b833981519152546001600160a01b031690565b6001600160a01b0316146107d55760405162461bcd60e51b815260040161075d90612e50565b6107de81611df9565b604080516000808252602082019092526107fa91839190611e01565b50565b33600090815260fe602052604090205460ff1615156001148061082a57506097546001600160a01b031633145b6108465760405162461bcd60e51b815260040161075d90612e9c565b60fc80546001600160a01b0319166001600160a01b0383169081179091556040805160608082526015908201527439b2ba2fba37b5b2b72fb234b9ba3934b13aba37b960591b608082015260208101929092526001908201527f2cfb57781d9c154e822ff0da753be77d4aa8c03bec8436de4c4261b3604c13739060a0015b60405180910390a150565b6108d8611f6c565b6001600160a01b038216600081815260fe6020908152604091829020805460ff1916851515908117909155825160608082526009908201526839b2ba2fb0b236b4b760b91b608082015291820193909352908101919091527f2cfb57781d9c154e822ff0da753be77d4aa8c03bec8436de4c4261b3604c13739060a0015b60405180910390a15050565b306001600160a01b037f00000000000000000000000000000000000000000000000000000000000000001614156109ab5760405162461bcd60e51b815260040161075d90612e04565b7f00000000000000000000000000000000000000000000000000000000000000006001600160a01b03166109f460008051602061321b833981519152546001600160a01b031690565b6001600160a01b031614610a1a5760405162461bcd60e51b815260040161075d90612e50565b610a2382611df9565b610a2f82826001611e01565b5050565b6000306001600160a01b037f00000000000000000000000000000000000000000000000000000000000000001614610ad35760405162461bcd60e51b815260206004820152603860248201527f555550535570677261646561626c653a206d757374206e6f742062652063616c60448201527f6c6564207468726f7567682064656c656761746563616c6c0000000000000000606482015260840161075d565b5060008051602061321b83398151915290565b33600090815260fe602052604090205460ff16151560011480610b1357506097546001600160a01b031633145b610b2f5760405162461bcd60e51b815260040161075d90612e9c565b8051610a2f9061010490602084019061282a565b33600090815260fe602052604090205460ff16151560011480610b7057506097546001600160a01b031633145b610b8c5760405162461bcd60e51b815260040161075d90612e9c565b61010055565b610b9a611f6c565b610ba46000611fc6565b565b33600090815260fe602052604090205460ff16151560011480610bd357506097546001600160a01b031633145b610bef5760405162461bcd60e51b815260040161075d90612e9c565b8051610a2f9061010590602084019061282a565b6000838383604051602001610c1a93929190612f09565b6040516020818303038152906040528051906020012090505b9392505050565b33600090815260fe602052604090205460ff16151560011480610c6757506097546001600160a01b031633145b610c835760405162461bcd60e51b815260040161075d90612e9c565b60005b8151811015610ced576001610103838381518110610ca657610ca6612f48565b6020026020010151604051610cbb9190612f5e565b908152604051908190036020019020805491151560ff1990921691909117905580610ce581612f90565b915050610c86565b507f4b49cb00a60a567a8c7d7b93dcde1f682b1e47f666ca992ec7a7ddee4151b091816040516108c59190612fd7565b60408051600f808252610200820190925260609160009190602082016101e08036833701905050905060005b60098160ff161015610dff576101048054604051610d739084908b908b908b908b90602001613039565b6040516020818303038152906040528051906020012060001c610d9691906130a5565b81548110610da657610da6612f48565b90600052602060002090602091828204019190069054906101000a900460ff16828260ff1681518110610ddb57610ddb612f48565b60ff9092166020928302919091019091015280610df7816130b9565b915050610d49565b5060095b600f8160ff161015610eb9576101058054604051610e2d9084908b908b908b908b90602001613039565b6040516020818303038152906040528051906020012060001c610e5091906130a5565b81548110610e6057610e60612f48565b90600052602060002090602091828204019190069054906101000a900460ff16828260ff1681518110610e9557610e95612f48565b60ff9092166020928302919091019091015280610eb1816130b9565b915050610e03565b5090505b949350505050565b6101068281548110610ed657600080fd5b906000526020600020018181548110610eee57600080fd5b9060005260206000209060209182820401919006915091509054906101000a900460ff1681565b610f1d612018565b8261010381604051610f2f9190612f5e565b9081526040519081900360200190205460ff1615610f855760405162461bcd60e51b8152602060048201526013602482015272151e081cdd185d194e8810d85b98d95b1b1959606a1b604482015260640161075d565b8360ff81604051610f969190612f5e565b908152602001604051809103902060030154600014610ff75760405162461bcd60e51b815260206004820152601b60248201527f54782073746174653a2053776170206461746120657869737465640000000000604482015260640161075d565b6110018484612072565b600083116110515760405162461bcd60e51b815260206004820152601860248201527f706c617967616d653a20416d6f756e74206973207a65726f0000000000000000604482015260640161075d565b60fb5460fc546040516370a0823160e01b81526001600160a01b039182166004820152859291909116906370a0823190602401602060405180830381865afa1580156110a1573d6000803e3d6000fd5b505050506040513d601f19601f820116820180604052508101906110c591906130d9565b10156111295760405162461bcd60e51b815260206004820152602d60248201527f706c61794269726447616d653a205472616e7366657220616d6f756e7420657860448201526c63656564732062616c616e636560981b606482015260840161075d565b60fb5460fc54604051636eb1769f60e11b81526001600160a01b0391821660048201523060248201528592919091169063dd62ed3e90604401602060405180830381865afa15801561117f573d6000803e3d6000fd5b505050506040513d601f19601f820116820180604052508101906111a391906130d9565b10156112095760405162461bcd60e51b815260206004820152602f60248201527f706c61794269726447616d653a205472616e7366657220616d6f756e7420657860448201526e636565647320616c6c6f77616e636560881b606482015260840161075d565b60fc5460fb54611228916001600160a01b039182169133911686612172565b60646112358460036130f2565b61123f9190613111565b61010860008282546112519190613125565b9091555060009050806060336112694288838c610d1d565b915060005b6101065481101561156f576000610106828154811061128f5761128f612f48565b9060005260206000200180548060200260200160405190810160405280929190818152602001828054801561130157602002820191906000526020600020906000905b825461010083900a900460ff168152602060019283018181049485019490930390920291018084116112d25790505b5050505050905060008460018360008151811061132057611320612f48565b6020026020010151611332919061313d565b60ff168151811061134557611345612f48565b6020026020010151905060008560018460018151811061136757611367612f48565b6020026020010151611379919061313d565b60ff168151811061138c5761138c612f48565b602002602001015190506000866001856002815181106113ae576113ae612f48565b60200260200101516113c0919061313d565b60ff16815181106113d3576113d3612f48565b6020026020010151905060006113ea8484846121d2565b9050600060ff82161561154a5760068260ff16101561140e5750505050505061155d565b8160ff16600614156114865788600a8151811061142d5761142d612f48565b602002602001015160ff166005148015611464575088600d8151811061145557611455612f48565b602002602001015160ff166005145b156114785760019a5050505050505061155d565b6114838e60056130f2565b90505b8160ff166007141561149557508c5b8160ff16600814156114bb5760646114ae8f60236130f2565b6114b89190613111565b90505b8160ff16600914156114e15760646114d48f600a6130f2565b6114de9190613111565b90505b60006115068a600a815181106114f9576114f9612f48565b602002602001015161230b565b90508060ff16600114611548576115298a600d815181106114f9576114f9612f48565b60ff168160ff168361153b91906130f2565b61154591906130f2565b91505b505b611554818b613125565b99505050505050505b8061156781612f90565b91505061126e565b508360ff1660011415611595576101085461158a9084613125565b610107546101085592505b600083156115b75760646115aa8560056130f2565b6115b49190613111565b90505b6115c18185613160565b935083156115e75760fc5460fb546115e7916001600160a01b0391821691168b87612172565b7f19067005314629d96236fa90b16ab5046fbccaa80f5e433b2da2ae87d1c28d7283868660405161161a93929190613177565b60405180910390a150505050505050611633600160c955565b505050565b33600090815260fe602052604090205460ff1615156001148061166557506097546001600160a01b031633145b6116815760405162461bcd60e51b815260040161075d90612e9c565b60fb80546001600160a01b0319166001600160a01b0383169081179091556040805160608082526012908201527139b2ba2fb2bc31b430b733b2afba37b5b2b760711b608082015260208101929092526001908201527f2cfb57781d9c154e822ff0da753be77d4aa8c03bec8436de4c4261b3604c13739060a0016108c5565b33600090815260fe602052604090205460ff1615156001148061172e57506097546001600160a01b031633145b61174a5760405162461bcd60e51b815260040161075d90612e9c565b61010155565b600054610100900460ff16158080156117705750600054600160ff909116105b8061178a5750303b15801561178a575060005460ff166001145b6117ed5760405162461bcd60e51b815260206004820152602e60248201527f496e697469616c697a61626c653a20636f6e747261637420697320616c72656160448201526d191e481a5b9a5d1a585b1a5e995960921b606482015260840161075d565b6000805460ff191660011790558015611810576000805461ff0019166101001790555b611818612361565b60fb80546001600160a01b03199081166001600160a01b0385161790915560fc805433921682179055600090815260fe60209081526040808320805460ff1916600190811790915560056101008181556101019590955582516102e081018452918252600393820184905260049282018390526060820181905260066080830152600760a08301819052600860c08401819052600960e08501819052600a9785018890526101208501819052610140850181905261016085015261018084018190526101a08401526101c08301526101e082018490526102008201839052610220820181905261024082018590526102608201939093526102808101919091526102a08101919091526102c08101919091526119399061010490601761282a565b5060408051610100810182526003815260046020820152600591810191909152600a606082018190526080820181905260a0820181905260c0820181905260e082015261198b9061010590600861282a565b5069021e19e0c9bab240000061010781905561010855604080516103c081018252600161036082018181526004610380840181905260076103a085018190529184528451606081810187528482526020828101849052600883890181905281880193909352875180830189528681528082018590526009818a01819052888a019190915288518084018a528781526005818401819052818b01889052848a019190915289518085018b52888152808401829052808b0186905260808a015289518085018b52888152808401829052808b0183905260a08a015289518085018b528881526006818501819052818c0189905260c08b01919091528a518086018c52898152808501829052808c0187905260e08b01528a518086018c52988952888401819052888b018390526101008a019890985289518085018b526002808252818501889052818c018990526101208b01919091528a518086018c52818152808501889052808c018790526101408b01528a518086018c52818152808501889052808c018490526101608b01528a518086018c52818152808501839052808c018990526101808b01528a518086018c52818152808501839052808c018790526101a08b01528a518086018c52818152808501839052808c018490526101c08b01528a518086018c528181528085018a9052808c018990526101e08b01528a518086018c528181528085018a9052808c018790526102008b01528a518086018c52908152808401899052808b018390526102208a015289518085018b526003808252818501889052818c018990526102408b01919091528a518086018c52818152808501889052808c018790526102608b01528a518086018c5281815280850197909752868b018390526102808a019690965289518085018b52868152808401829052808b018890526102a08a015289518085018b52868152808401829052808b018690526102c08a015289518085018b5286815280840191909152808a018290526102e089015288518084018a52858152808301889052808a019690965261030088019590955287518083018952848152808201879052808901939093526103208701929092528651908101875291825281019290925292810192909252610340810191909152611ce09061010690601b6128d0565b508015610a2f576000805461ff0019169055604051600181527f7f26b83ff96e1f2b6a682f133852f6798a09c465da95921460cefb384740249890602001610956565b61010481815481106106f057600080fd5b611d3c611f6c565b6001600160a01b038116611da15760405162461bcd60e51b815260206004820152602660248201527f4f776e61626c653a206e6577206f776e657220697320746865207a65726f206160448201526564647265737360d01b606482015260840161075d565b6107fa81611fc6565b33600090815260fe602052604090205460ff16151560011480611dd757506097546001600160a01b031633145b611df35760405162461bcd60e51b815260040161075d90612e9c565b61010755565b6107fa611f6c565b7f4910fdfa16fed3260ed0e7147f7cc6da11a60208b5b9406d12a635614ffd91435460ff1615611e345761163383612390565b826001600160a01b03166352d1902d6040518163ffffffff1660e01b8152600401602060405180830381865afa925050508015611e8e575060408051601f3d908101601f19168201909252611e8b918101906130d9565b60015b611ef15760405162461bcd60e51b815260206004820152602e60248201527f45524331393637557067726164653a206e657720696d706c656d656e7461746960448201526d6f6e206973206e6f74205555505360901b606482015260840161075d565b60008051602061321b8339815191528114611f605760405162461bcd60e51b815260206004820152602960248201527f45524331393637557067726164653a20756e737570706f727465642070726f786044820152681a58589b195555525160ba1b606482015260840161075d565b5061163383838361242c565b6097546001600160a01b03163314610ba45760405162461bcd60e51b815260206004820181905260248201527f4f776e61626c653a2063616c6c6572206973206e6f7420746865206f776e6572604482015260640161075d565b609780546001600160a01b038381166001600160a01b0319831681179093556040519116919082907f8be0079c531659141344cd1fd0a4f28419497f9722a3daafe3b4186f6b6457e090600090a35050565b600260c954141561206b5760405162461bcd60e51b815260206004820152601f60248201527f5265656e7472616e637947756172643a207265656e7472616e742063616c6c00604482015260640161075d565b600260c955565b610100546001600160a01b0383166000908152610102602052604090205461209a9190613125565b4210156120e95760405162461bcd60e51b815260206004820152601e60248201527f706c617967616d653a204e6f7420746f20737761702074696d65207965740000604482015260640161075d565b610101541561215457610101548111156121545760405162461bcd60e51b815260206004820152602660248201527f706c617967616d653a205377617020616d6f756e7420657863656564206d6178604482015265081b1a5b5a5d60d21b606482015260840161075d565b506001600160a01b0316600090815261010260205260409020429055565b604080516001600160a01b0385811660248301528416604482015260648082018490528251808303909101815260849091019091526020810180516001600160e01b03166323b872dd60e01b1790526121cc908590612451565b50505050565b60008060ff8581169085161480156121ef57508260ff168560ff16145b156121fb575083610ebd565b8460ff166001148061221057508360ff166001145b8061221e57508260ff166001145b15610ebd578460ff1660011415801561223b57508460ff16600614155b15612265578360ff1660011415612250578493505b8260ff1660011415612260578492505b6122e3565b8360ff1660011415801561227d57508360ff16600614155b156122a6578460ff1660011415612292578394505b8260ff1660011415612260578392506122e3565b8260ff166001141580156122be57508260ff16600614155b156122e3578460ff16600114156122d3578294505b8360ff16600114156122e3578293505b8360ff168560ff161480156122fd57508260ff168560ff16145b15610ebd5750929392505050565b60006001600360ff841614156123235750600361235b565b8260ff16600414156123375750600561235b565b8260ff166005141561234b5750600a61235b565b8260ff16600a141561235b575060015b92915050565b600054610100900460ff166123885760405162461bcd60e51b815260040161075d9061319f565b610ba4612523565b6001600160a01b0381163b6123fd5760405162461bcd60e51b815260206004820152602d60248201527f455243313936373a206e657720696d706c656d656e746174696f6e206973206e60448201526c1bdd08184818dbdb9d1c9858dd609a1b606482015260840161075d565b60008051602061321b83398151915280546001600160a01b0319166001600160a01b0392909216919091179055565b61243583612553565b6000825111806124425750805b15611633576121cc8383612593565b60006124a6826040518060400160405280602081526020017f5361666545524332303a206c6f772d6c6576656c2063616c6c206661696c6564815250856001600160a01b03166126879092919063ffffffff16565b80519091501561163357808060200190518101906124c491906131ea565b6116335760405162461bcd60e51b815260206004820152602a60248201527f5361666545524332303a204552433230206f7065726174696f6e20646964206e6044820152691bdd081cdd58d8d9595960b21b606482015260840161075d565b600054610100900460ff1661254a5760405162461bcd60e51b815260040161075d9061319f565b610ba433611fc6565b61255c81612390565b6040516001600160a01b038216907fbc7cd75a20ee27fd9adebab32041f755214dbc6bffa90cc0225b39da2e5c2d3b90600090a250565b60606001600160a01b0383163b6125fb5760405162461bcd60e51b815260206004820152602660248201527f416464726573733a2064656c65676174652063616c6c20746f206e6f6e2d636f6044820152651b9d1c9858dd60d21b606482015260840161075d565b600080846001600160a01b0316846040516126169190612f5e565b600060405180830381855af49150503d8060008114612651576040519150601f19603f3d011682016040523d82523d6000602084013e612656565b606091505b509150915061267e828260405180606001604052806027815260200161323b60279139612696565b95945050505050565b6060610ebd84846000856126af565b606083156126a5575081610c33565b610c33838361278a565b6060824710156127105760405162461bcd60e51b815260206004820152602660248201527f416464726573733a20696e73756666696369656e742062616c616e636520666f6044820152651c8818d85b1b60d21b606482015260840161075d565b600080866001600160a01b0316858760405161272c9190612f5e565b60006040518083038185875af1925050503d8060008114612769576040519150601f19603f3d011682016040523d82523d6000602084013e61276e565b606091505b509150915061277f878383876127b4565b979650505050505050565b81511561279a5781518083602001fd5b8060405162461bcd60e51b815260040161075d9190613207565b60608315612820578251612819576001600160a01b0385163b6128195760405162461bcd60e51b815260206004820152601d60248201527f416464726573733a2063616c6c20746f206e6f6e2d636f6e7472616374000000604482015260640161075d565b5081610ebd565b610ebd838361278a565b82805482825590600052602060002090601f016020900481019282156128c05791602002820160005b8382111561289157835183826101000a81548160ff021916908360ff1602179055509260200192600101602081600001049283019260010302612853565b80156128be5782816101000a81549060ff0219169055600101602081600001049283019260010302612891565b505b506128cc929150612923565b5090565b828054828255906000526020600020908101928215612917579160200282015b82811115612917578251612907908390600361282a565b50916020019190600101906128f0565b506128cc929150612938565b5b808211156128cc5760008155600101612924565b808211156128cc57600061294c8282612955565b50600101612938565b50805460008255601f0160209004906000526020600020908101906107fa9190612923565b60006020828403121561298c57600080fd5b5035919050565b6001600160a01b03811681146107fa57600080fd5b6000602082840312156129ba57600080fd5b8135610c3381612993565b80151581146107fa57600080fd5b600080604083850312156129e657600080fd5b82356129f181612993565b91506020830135612a01816129c5565b809150509250929050565b634e487b7160e01b600052604160045260246000fd5b604051601f8201601f1916810167ffffffffffffffff81118282101715612a4b57612a4b612a0c565b604052919050565b600067ffffffffffffffff831115612a6d57612a6d612a0c565b612a80601f8401601f1916602001612a22565b9050828152838383011115612a9457600080fd5b828260208301376000602084830101529392505050565b60008060408385031215612abe57600080fd5b8235612ac981612993565b9150602083013567ffffffffffffffff811115612ae557600080fd5b8301601f81018513612af657600080fd5b612b0585823560208401612a53565b9150509250929050565b600082601f830112612b2057600080fd5b610c3383833560208501612a53565b600060208284031215612b4157600080fd5b813567ffffffffffffffff811115612b5857600080fd5b610ebd84828501612b0f565b600067ffffffffffffffff821115612b7e57612b7e612a0c565b5060051b60200190565b60006020808385031215612b9b57600080fd5b823567ffffffffffffffff811115612bb257600080fd5b8301601f81018513612bc357600080fd5b8035612bd6612bd182612b64565b612a22565b81815260059190911b82018301908381019087831115612bf557600080fd5b928401925b8284101561277f57833560ff81168114612c145760008081fd5b82529284019290840190612bfa565b600080600060608486031215612c3857600080fd5b833567ffffffffffffffff811115612c4f57600080fd5b612c5b86828701612b0f565b9350506020840135612c6c81612993565b929592945050506040919091013590565b60006020808385031215612c9057600080fd5b823567ffffffffffffffff80821115612ca857600080fd5b818501915085601f830112612cbc57600080fd5b8135612cca612bd182612b64565b81815260059190911b83018401908481019088831115612ce957600080fd5b8585015b83811015612d2157803585811115612d055760008081fd5b612d138b89838a0101612b0f565b845250918601918601612ced565b5098975050505050505050565b60008060008060808587031215612d4457600080fd5b84359350602085013592506040850135612d5d81612993565b9150606085013567ffffffffffffffff811115612d7957600080fd5b612d8587828801612b0f565b91505092959194509250565b600081518084526020808501945080840160005b83811015612dc457815160ff1687529582019590820190600101612da5565b509495945050505050565b602081526000610c336020830184612d91565b60008060408385031215612df557600080fd5b50508035926020909101359150565b6020808252602c908201527f46756e6374696f6e206d7573742062652063616c6c6564207468726f7567682060408201526b19195b1959d85d1958d85b1b60a21b606082015260800190565b6020808252602c908201527f46756e6374696f6e206d7573742062652063616c6c6564207468726f7567682060408201526b6163746976652070726f787960a01b606082015260800190565b60208082526021908201527f417574686f72697a6174696f6e3a20526571756972652061646d696e20726f6c6040820152606560f81b606082015260800190565b60005b83811015612ef8578181015183820152602001612ee0565b838111156121cc5750506000910152565b60008451612f1b818460208901612edd565b60609490941b6bffffffffffffffffffffffff191691909301908152601481019190915260340192915050565b634e487b7160e01b600052603260045260246000fd5b60008251612f70818460208701612edd565b9190910192915050565b634e487b7160e01b600052601160045260246000fd5b6000600019821415612fa457612fa4612f7a565b5060010190565b60008151808452612fc3816020860160208601612edd565b601f01601f19169290920160200192915050565b6000602080830181845280855180835260408601915060408160051b870101925083870160005b8281101561302c57603f1988860301845261301a858351612fab565b94509285019290850190600101612ffe565b5092979650505050505050565b60ff60f81b8660f81b1681528460018201528360218201526bffffffffffffffffffffffff198360601b1660418201526000825161307e816055850160208701612edd565b919091016055019695505050505050565b634e487b7160e01b600052601260045260246000fd5b6000826130b4576130b461308f565b500690565b600060ff821660ff8114156130d0576130d0612f7a565b60010192915050565b6000602082840312156130eb57600080fd5b5051919050565b600081600019048311821515161561310c5761310c612f7a565b500290565b6000826131205761312061308f565b500490565b6000821982111561313857613138612f7a565b500190565b600060ff821660ff84168082101561315757613157612f7a565b90039392505050565b60008282101561317257613172612f7a565b500390565b60608152600061318a6060830186612d91565b60ff9490941660208301525060400152919050565b6020808252602b908201527f496e697469616c697a61626c653a20636f6e7472616374206973206e6f74206960408201526a6e697469616c697a696e6760a81b606082015260800190565b6000602082840312156131fc57600080fd5b8151610c33816129c5565b602081526000610c336020830184612fab56fe360894a13ba1a3210667c828492db98dca3e2076cc3735a920a3ca505d382bbc416464726573733a206c6f772d6c6576656c2064656c65676174652063616c6c206661696c6564a2646970667358221220e50ddf56345c0d4272b5aa04f2a98cb81e64c7390afe0ad63d5f1bff736b4cb464736f6c634300080a0033",
  "linkReferences": {},
  "deployedLinkReferences": {}
}